:020000020000FC
:040000000C94480014
:040084000C947C005C
:04000C000C948B00C5
:040008000C949600BE
:10008C000C94700041E24EBF4FEF4DBF0FEF0DB916
:10009C0000270EB900E1009304020AE000939A00D5
:1000AC00002700939B0001E00093910001E800936E
:1000BC00900047E0409371004DB344604DBB4DB38D
:1000CC0042604DBB4DB341604DBB46E0409369006F
:1000DC007894FFCF4FB74F93DF93CF9380919A00D3
:1000EC008EB9CF91DF914F914FBF18954FB74F936A
:1000FC00DF93CF93809104028095809304028EB994
:10010C00CF91DF914F914FBF18958F939F9300E143
:10011C0000939A00002700939B009F918F91189554
:10012C008F939F9300E000939A00002700939B000D
:06013C009F918F911895C0
:00000001FF
