:020000020000FC
:040000000C9430002C
:04000C000C9435011A
:10005C000C94350041E24EBF4FEF4DBF7AC04FB705
:10006C004F93DF93CF938091000290910102019600
:10007C0082344FE09407B9F4DF93CF93C0E0D2E021
:10008C00442749934883CF91DF918091020290914C
:10009C000302019680930202909303028091040262
:1000AC0086950BD08827809300029093010200C0A4
:1000BC00CF91DF914F914FBF189508E3A0D0A6D0F8
:1000CC00BFD008E39CD0A2D0C1D008E398D09ED07A
:1000DC0008E395D09BD008E092D098D001E08FD067
:1000EC0095D006E08CD092D00EE089D08FD04427EA
:1000FC005527843618F084564395FBCF8A3018F078
:10010C008A505395FBCF405D505D805D042F8FD09E
:10011C007DD0052F8CD07AD0082F89D077D000ECE9
:10012C006ED074D002E583D071D000E580D06ED053
:10013C0003E57DD06BD03395DF93CF93C4E0D2E051
:10014C00442749934883CF91DF91032F70D05ED021
:10015C0008950C94B80028B92296DEBFCDBFDF916C
:10016C00CF9108954FEF40BB41B9442741BB42B9F1
:10017C0048E0409369004DB344604DBB40E044BD42
:10018C0042E045BD41E040936E00789408E337D0DF
:10019C003DD056D008E333D039D058D008E32FD017
:1001AC0035D008E32CD032D008E029D02FD001E094
:1001BC0026D02CD006E023D029D00EE020D026D09B
:1001CC00DF93CF93C0E0D2E0442749934883CF918B
:1001DC00DF91DF93CF93C2E0D2E044274993488369
:1001EC00CF91DF91DF93CF93C4E0D2E044274993C2
:1001FC004883CF91DF9130E300C00C94030101BB25
:10020C0025D0169A23D0169821D008950F93002745
:10021C0000BB01BB159A1AD0169A18D00FB11698BC
:10022C0007FDF9CF15980FEF00BB0F91089501BB97
:10023C00179A0CD0169A0AD0169808D017980895C9
:10024C0005D004D003D002D001D008958F939F9392
:10025C009FE08CE90197F1F79F918F9108958F930F
:0E026C00809104028395809304028F9118956F
:00000001FF
